:020000000C945E
:100002006D000C9400000C9400000C9400000C9401
:1000120000000C9400000C9400000C9400000C945E
:1000220000000C9400000C9400000C9400000C944E
:1000320000000C9400000C9400000C9400000C943E
:1000420000000C9400000C9400000C9400000C942E
:1000520000001F1F1F1F1F1F1F1F1F111111111132
:10006200111F10181C1F1F0F070301030F1F1F1E54
:100072001C1801070F1F1F0F0701101C1E1F1F1E38
:100082001C1000000000803F0000803F0100524F22
:10009200424F54494B4120554E4E455320000004D7
:1000A2004249534D494C4C414805000000FF0000B5
:1000B20000000000000080C0010002008400040073
:1000C20060028600040064028A000A000400AE0096
:1000D20002009002B8000000F894EE27ECBBF1E0B9
:1000E200FBBFEBBFE5BFF8E1F1BDE1BD8DE0A2E0F2
:1000F200BB27ED938A95E9F780E098E0A0E6ED93BF
:100102000197E9F7EAEBF0E085919591009761F0AC
:10011200A591B59105901590BF01F00105900D9242
:100122000197E1F7FB01F0CFEFE5EDBFE8E0EEBFAD
:10013200C0E6D2E00C949D00E0E0EBBBEABBEFEF3F
:10014200E8BBE7BBE0E0E5BBE4BBE2BBECEFE1BB55
:10015200E1EAEFBDEBE0EEBDE0E0EDBDECBDE7BDF9
:10016200E6BDEBBDEABDE9BDE8BDE0E6E7B9E7E81B
:10017200E6B91CD14BD0EFD0A9D02BD043D1FDCFC3
:10018200FFCFAA931A930A93EA81EE0FEE0FEE0FB6
:10019200E0640E2F10E0183068F40A930395EC81A6
:1001A200FD813196EC83FD833197A4910E944F0328
:1001B2001F5FF1CF1981088125960895AA93E881DE
:1001C200E066E7B9369A349BFECF349AE5B10C94D7
:1001D200BD031A930A9318E06624E12F1150E03010
:1001E20081F0A12FEBDF0E2F0E94BF03E857FD4FD6
:1001F200E081E01728F4E12FA1E00E94DA046E2AE0
:10020200ECCFE89420F809911991089522970E9461
:100212005B0510E040E050E0DA010E943E055E2EF0
:1002220041E050E0DA010E943E054E2EA52DBB278B
:10023200E42DF0E0AE1BBF0BE8E0F0E00E941005F9
:100242007E2E22E030E0D9010E943A054F01E4E01F
:10025200F0E00E94C203E0936002F09361026093B7
:10026200620270936302E8E0F0E00E94C203E0934E
:100272006402F0936502609366027093670218301D
:10028200C0F40E94BF03E45FFF4FAF010E94BF03AF
:10029200E858FD4F0E94C9030E94BF03EC5EFF4F66
:1002A200AF010E94BF03E058FD4F0E94C9031F5FC8
:1002B200E6CF0E94620528960895AA93E881E0306D
:1002C20011F4C39801C0C39A0C94BD039698979AEF
:1002D2009298939A0895AA931A93A981BB27E4E668
:1002E200F0E00E941505DF01EAE0F0E00E9410054F
:1002F2001E2FA981B0E0E4E6F0E00E941005E05D67
:10030200AE2F0E947403A12FA05D0E947403A981E5
:10031200BB27EAE0F0E00E941505E05DAE2F0E94E7
:10032200740318810C9466031A9310E0183090F449
:10033200E12FA1E0B0E00E94E204A62DB0E0EA23A2
:10034200FB23309711F0A0E001C0A1E00E947403EA
:100352001F5FECCF29C01A9310E0183028F50E94D5
:10036200BF03CF010F01DF01E857FD4FFF93EF936A
:10037200FD01E45EFF4FBF01F001E058FD4FA08197
:10038200B0E0FC01E858FD4FE081F0E0AE1BBF0B8E
:10039200E2E0F0E00E941005DB010E944A05AF9105
:1003A200BF91EC931F5FD9CF19910895A0E10E94EC
:1003B20093038DD1E4E5F0E0FA93EA93A0E0E1DE65
:1003C200ECE5F0E0FA93EA93A1E0DBDEE4E6F0E0AC
:1003D200FA93EA93A2E0D5DEECE6F0E0FA93EA9330
:1003E200A3E0CFDEE4E7F0E0FA93EA93A4E0C9DE0B
:1003F200ECE7F0E0FA93EA93A5E0C3DEA1E05DDF6B
:1004020066D108950E945B05E62DF0E0E130A0E0A0
:10041200FA0719F4E7E0F0E08BC0E330A0E0FA0756
:1004220021F0E730A0E0FA0719F4E6E0F0E080C03E
:10043200E230A0E0FA0719F4E5E0F0E079C0E63036
:10044200A0E0FA0721F0EE30A0E0FA0719F4E4E0A8
:10045200F0E06EC0E430A0E0FA0719F4E3E0F0E067
:1004620067C0EC30A0E0FA0721F0EC31A0E0FA0717
:1004720019F4E2E0F0E05CC0E830A0E0FA0719F419
:10048200E1E0F0E055C0E831A0E0FA0719F4AA244F
:10049200BB244FC0E031A0E0FA0719F4EFEFFFEF01
:1004A20047C0E033A0E0FA0721F0E833A0E0FA0702
:1004B20019F4EEEFFFEF3CC0E032A0E0FA0721F4BE
:1004C200EDEFFFEF5F0104C0E036A0E0FA0709F4A8
:1004D20004C0E037A0E0FA0719F4ECEFFFEF28C000
:1004E200E034A0E0FA0719F4EBEFFFEF21C0E03CA3
:1004F200A0E0FA0721F0E03EA0E0FA0719F4EAEFE3
:10050200FFEF16C0E038A0E0FA0719F4E9EFFFEFB9
:100512000FC0309771F40024A014B0041CF4E8EF6B
:10052200FFEF06C000240A140B041CF4E8E0F0E01C
:100532005F01F501D4010E94F804E0936802F09390
:100542006902F501A0916A02B0916B02EA0FFB1FEA
:10055200E0936A02F0936B02A0916402B09165028B
:1005620080916602909167020E94EB040E945204FD
:100572000E948004AAE6B2E00E941B04ED93FC9361
:10058200A0917402B0917502F501EA1BFB0BACE677
:10059200B2E00E94EB040E9452040E943105E091F5
:1005A2006A02F0916B02A0916802B0916902EA0FAF
:1005B200FB1FAF01A0927402B0927502042E052AAD
:1005C20021F4EDD09F018F0117C000240416050607
:1005D2004CF4E5D0E41BF50B9F01E1D0E40FF51FCD
:1005E2008F010AC0552342F4DAD0E40FF51F8F01C0
:1005F200D6D0E41BF50B9F01E42DD801F0E0AE1735
:10060200BF0714F4042D1127E52DD801F0E0EA17F5
:10061200FB0714F4052D1127E42DD901F0E0AE17E4
:10062200BF0714F4242D3327E52DD901F0E0EA1792
:10063200FB0714F4252D332708BD2ABDE0E0B2D014
:10064200A22F49DEEDE0AED0A02F45DEE4E0AAD035
:100652006BDE0E94620526960895AA93E8B3EF70B6
:10066200AE2FE881E07FEA2BE8BB8BE08A95F1F7B9
:10067200C29A8BE18A95F1F7C2988BE18A95F1F7DC
:100682007BC0AA93A881E9DFE881E295E883A8818B
:10069200E4DF88EC90E00197F1F76EC0AA93A9819C
:1006A200F0DFC09AA881EDDFC0980FC0AA93E8815D
:1006B200F0E0E057FD4FE081A981AE0FE2DFE98172
:1006C200E0939402E881E093950222960895A2E0D5
:1006D2006CD0ACE0D6DFA1E068D0E0E0E093950218
:1006E200E09394020895AA93A881AA3031F0E09190
:1006F2009602A0919402AE1758F0E0E0EA93A0911E
:100702009502AF5FA0939502D1DFA881AA30A1F133
:10071200E0919402EF5FE0939402C09AA881B1DF66
:10072200C0982AC0AA93E7B3E06FE7BBBA9AB89A17
:10073200B99AC298C098C198E881E0939602E058AD
:10074200E0939202E881E054E0939302A4E1B0E0E6
:100752000E94E2032FD02ED02DD0A0E27EDF80E9CE
:1007620091E00197F1F7A8E28CDFA4E08ADFA5E827
:1007720088DFA6E086DFABDF21960895E12FF0E067
:100782000895EE83FF83AE81BF810E9436050895EE
:100792000F01DA010E943E05D001EC930895E52D88
:1007A200F0E00895EA93A0E081CF6BDFA3E0B0E030
:1007B2000C94E203A0E351DF80E991E00197F1F7A5
:1007C2000895109639F080EA9FE00197F1F7A89515
:1007D2001197C9F70895552342F4503811F4E0FFF8
:1007E20004C03196691F791F6BF050E8572711F446
:1007F2005F9373C05F3F31F0660F000C57956795AA
:10080200752F08955F9300200AF073C06CC050E802
:10081200192E1522880F991F9527550F879550E895
:10082200072E0522660F771F7527550F67950895C6
:10083200689401C0E8945F93F2DF703818F07F3F4C
:1008420008F44BC056E1571BAAF4519558300EF4E8
:10085200593030F0EFEFFFEF6FEF7FE777F91AC013
:1008620077275523B9F0EE0FFF1F661F771F5A95A2
:10087200D1F710C07727583028F0EF2FF62F672FC7
:100882005850F9CF552331F076956795F795E7954E
:100892005A95D1F700200AF484D05F9108956894A4
:1008A20001C0E894309760407040B1F0002426F017
:1008B200772312F4009475D0172E7EE1112032F0C6
:1008C2007A95EE0FFF1F661F111CF9CFEF2FF62F3F
:1008D200612D5F938ADF5F910895EE27FF276627D8
:1008E20077275F910895EFEFFFEF6FE77FEF5F915B
:1008F2000895EFEFFFEF6FE77FE75F9108955F9352
:1009020086DF703851F3903841F301240894791F3F
:1009120023F41CF300203AF3ECCF0F921F932F9392
:100922003F934F93112722279927689FA0018F9FFA
:10093200302D410D591F6B9F300D411D591F8E9F48
:1009420027D0BF9F25D06A9F23D0BE9F1DD0AF9FC7
:100952001BD0AE9F110D291F391F491F591FE32FAD
:10096200F42F652F522F4F913F912F911F910F908E
:1009720066232AF0550FEE1FFF1F661F02C07395F4
:100982004BF229DF5F910895100D211D391F02C01E
:10099200200D311D491F591F0895F195E195F04031
:1009A2000895F09560957095E195FF4F6F4F7F4FD9
:1009B2000895EE230E2EEA2F19F0EE0F0A94E9F7AE
:1009C2000895EE230E2EFD0121F0EE0FFF1F0A9473
:1009D200E1F708956F2F660F660B762F0895FA9F41
:1009E200F02DEB9FF00DEA9FE02DF10D08952AD036
:1009F200F6DF0EF4D2DF08950024112490E1AA0F4D
:100A0200BB1F001C111C0E1A1F0A18F40E0E1F1E0B
:100A120001C0A1609A9599F7FD01D001089512D005
:100A2200EBDF0EF4BADF0895E894B7FF04C0A09597
:100A3200B09511966894F7FDB0DFDEDFFD010EF48C
:100A4200ACDF0895E894F7FF02C0A7DF6894B7FF10
:100A520006C0A095B095119600F8039400FA089587
:100A6200ED93FD936D937C930895129602D0BF018E
:100A72001297119602D0FE2F1197E199FECFFF93A4
:100A8200FFB7F894AEBBBFBBE09AEDB3FFBFFF91D7
:100A92000895E19B02C0A895FCCF9FB7F894AEBB26
:100AA200BFBBE09A8DB3E81719F0EDBBE29AE19A69
:100AB2009FBF08955A934A933A932A931A930A939B
:100AC20008955D814C813B812A81198108810895B5
:00000001FF
